{
  "contractName": "DappToken",
  "abi": [
    {
      "constant": true,
      "inputs": [],
      "name": "totalSupply",
      "outputs": [
        {
          "name": "",
          "type": "uint256"
        }
      ],
      "payable": false,
      "stateMutability": "view",
      "type": "function"
    },
    {
      "inputs": [],
      "payable": false,
      "stateMutability": "nonpayable",
      "type": "constructor"
    }
  ],
  "bytecode": "0x608060405234801561001057600080fd5b50620186a0600081905550609e806100296000396000f300608060405260043610603f576000357c0100000000000000000000000000000000000000000000000000000000900463ffffffff16806318160ddd146044575b600080fd5b348015604f57600080fd5b506056606c565b6040518082815260200191505060405180910390f35b600054815600a165627a7a72305820921e2121800175c41ddfe5a4c1828434b45b83d61a144b71df178e0a77f7a8e90029",
  "source": "pragma solidity ^0.4.2;\n\ncontract DappToken {\n  // contructor\n  // Set the total number of tokens\n  // Read the total number of tokens\n  uint256 public totalSupply;\n\n  function DappToken () public {\n    totalSupply = 100000; // state variable\n  }\n}",
  "sourcePath": "/Users/robin/i/token_sale/contracts/DappToken.sol",
  "compiler": {
    "name": "solc",
    "version": "0.4.24+commit.e67f0147.Emscripten.clang"
  },
  "schemaVersion": "2.0.1",
  "updatedAt": "2018-09-25T20:25:01.151Z"
}